{
  "contractName": "CapitalTransaction",
  "abi": [
    {
      "inputs": [],
      "stateMutability": "nonpayable",
      "type": "constructor"
    },
    {
      "inputs": [],
      "name": "getBalance",
      "outputs": [
        {
          "internalType": "uint256",
          "name": "",
          "type": "uint256"
        }
      ],
      "stateMutability": "view",
      "type": "function"
    },
    {
      "inputs": [],
      "name": "getCount",
      "outputs": [
        {
          "internalType": "uint256",
          "name": "",
          "type": "uint256"
        }
      ],
      "stateMutability": "view",
      "type": "function"
    },
    {
      "inputs": [
        {
          "internalType": "uint256",
          "name": "id",
          "type": "uint256"
        },
        {
          "internalType": "string",
          "name": "title",
          "type": "string"
        },
        {
          "internalType": "string",
          "name": "description",
          "type": "string"
        },
        {
          "internalType": "uint8",
          "name": "capitalType",
          "type": "uint8"
        },
        {
          "internalType": "uint256",
          "name": "value",
          "type": "uint256"
        }
      ],
      "name": "createCapital",
      "outputs": [],
      "stateMutability": "nonpayable",
      "type": "function"
    },
    {
      "inputs": [
        {
          "internalType": "uint256",
          "name": "id",
          "type": "uint256"
        },
        {
          "internalType": "string",
          "name": "title",
          "type": "string"
        },
        {
          "internalType": "string",
          "name": "description",
          "type": "string"
        },
        {
          "internalType": "uint8",
          "name": "capitalType",
          "type": "uint8"
        },
        {
          "internalType": "uint256",
          "name": "value",
          "type": "uint256"
        }
      ],
      "name": "updateCapital",
      "outputs": [],
      "stateMutability": "nonpayable",
      "type": "function"
    },
    {
      "inputs": [
        {
          "internalType": "uint256",
          "name": "id",
          "type": "uint256"
        }
      ],
      "name": "confirm",
      "outputs": [],
      "stateMutability": "nonpayable",
      "type": "function"
    },
    {
      "inputs": [
        {
          "internalType": "uint256",
          "name": "id",
          "type": "uint256"
        }
      ],
      "name": "cancel",
      "outputs": [],
      "stateMutability": "nonpayable",
      "type": "function"
    }
  ],
  "bytecode": "0x60806040526040516100109061008f565b604051809103906000f08015801561002c573d6000803e3d6000fd5b50600660006101000a81548173ffffffffffffffffffffffffffffffffffffffff021916908373ffffffffffffffffffffffffffffffffffffffff16021790555034801561007957600080fd5b506000600181905550600060058190555061009c565b612d628061182783390190565b61177c806100ab6000396000f3fe608060405234801561001057600080fd5b50600436106100625760003560e01c806312065fe01461006757806340e58ee514610085578063725b32db146100a157806396f312f2146100bd578063a87d942c146100d9578063ba0179b5146100f7575b600080fd5b61006f610113565b60405161007c91906112d9565b60405180910390f35b61009f600480360381019061009a9190610fb8565b61011d565b005b6100bb60048036038101906100b69190610fe1565b6102d4565b005b6100d760048036038101906100d29190610fe1565b6107e8565b005b6100e1610ace565b6040516100ee91906112d9565b60405180910390f35b610111600480360381019061010c9190610fb8565b610ad8565b005b6000600554905090565b60006003600083815260200190815260200160002054905060006004600083815260200190815260200160002060000154141561018f576040517f08c379a000000000000000000000000000000000000000000000000000000000815260040161018690611299565b60405180910390fd5b600160038111156101c9577f4e487b7100000000000000000000000000000000000000000000000000000000600052602160045260246000fd5b6004600084815260200190815260200160002060040160019054906101000a900460ff166003811115610225577f4e487b7100000000000000000000000000000000000000000000000000000000600052602160045260246000fd5b14610265576040517f08c379a000000000000000000000000000000000000000000000000000000000815260040161025c906112b9565b60405180910390fd5b600060046000838152602001908152602001600020905060038160040160016101000a81548160ff021916908360038111156102ca577f4e487b7100000000000000000000000000000000000000000000000000000000600052602160045260246000fd5b0217905550505050565b60011515600660009054906101000a900473ffffffffffffffffffffffffffffffffffffffff1673ffffffffffffffffffffffffffffffffffffffff16634202d214336040518263ffffffff1660e01b815260040161033391906111be565b60206040518083038186803b15801561034b57600080fd5b505afa15801561035f573d6000803e3d6000fd5b505050506040513d601f19601f820116820180604052508101906103839190610f8f565b1515146103c5576040517f08c379a00000000000000000000000000000000000000000000000000000000081526004016103bc90611279565b60405180910390fd5b6000851015610409576040517f08c379a000000000000000000000000000000000000000000000000000000000815260040161040090611219565b60405180910390fd5b600081101561044d576040517f08c379a000000000000000000000000000000000000000000000000000000000815260040161044490611259565b60405180910390fd5b60008260ff1610158015610465575060038260ff1611155b6104a4576040517f08c379a000000000000000000000000000000000000000000000000000000000815260040161049b90611239565b60405180910390fd5b6000600360008781526020019081526020016000205490506000600460008381526020019081526020016000206000015414610515576040517f08c379a000000000000000000000000000000000000000000000000000000000815260040161050c906111f9565b60405180910390fd5b6000600460008381526020019081526020016000209050868160000181905550600154816001018190555085816002019080519060200190610558929190610db8565b5084816003019080519060200190610571929190610db8565b508360ff1660048111156105ae577f4e487b7100000000000000000000000000000000000000000000000000000000600052602160045260246000fd5b8160040160006101000a81548160ff021916908360048111156105fa577f4e487b7100000000000000000000000000000000000000000000000000000000600052602160045260246000fd5b021790555082816005018190555060018160040160016101000a81548160ff02191690836003811115610656577f4e487b7100000000000000000000000000000000000000000000000000000000600052602160045260246000fd5b0217905550600154600360008981526020019081526020016000208190555060016000815480929190610688906114ac565b91905055506000819080600181540180825580915050600190039060005260206000209060060201600090919091909150600082015481600001556001820154816001015560028201816002019080546106e190611449565b6106ec929190610e3e565b50600382018160030190805461070190611449565b61070c929190610e3e565b506004820160009054906101000a900460ff168160040160006101000a81548160ff0219169083600481111561076b577f4e487b7100000000000000000000000000000000000000000000000000000000600052602160045260246000fd5b02179055506004820160019054906101000a900460ff168160040160016101000a81548160ff021916908360038111156107ce577f4e487b7100000000000000000000000000000000000000000000000000000000600052602160045260246000fd5b021790555060058201548160050155505050505050505050565b60011515600660009054906101000a900473ffffffffffffffffffffffffffffffffffffffff1673ffffffffffffffffffffffffffffffffffffffff16634202d214336040518263ffffffff1660e01b815260040161084791906111be565b60206040518083038186803b15801561085f57600080fd5b505afa158015610873573d6000803e3d6000fd5b505050506040513d601f19601f820116820180604052508101906108979190610f8f565b1515146108d9576040517f08c379a00000000000000000000000000000000000000000000000000000000081526004016108d090611279565b60405180910390fd5b60006003600087815260200190815260200160002054905060006004600083815260200190815260200160002060000154141561094b576040517f08c379a000000000000000000000000000000000000000000000000000000000815260040161094290611299565b60405180910390fd5b600086101561098f576040517f08c379a000000000000000000000000000000000000000000000000000000000815260040161098690611219565b60405180910390fd5b60008360ff16101580156109a7575060038360ff1611155b6109e6576040517f08c379a00000000000000000000000000000000000000000000000000000000081526004016109dd90611239565b60405180910390fd5b600060046000838152602001908152602001600020905085816002019080519060200190610a15929190610db8565b5084816003019080519060200190610a2e929190610db8565b508360ff166004811115610a6b577f4e487b7100000000000000000000000000000000000000000000000000000000600052602160045260246000fd5b8160040160006101000a81548160ff02191690836004811115610ab7577f4e487b7100000000000000000000000000000000000000000000000000000000600052602160045260246000fd5b021790555082816005018190555050505050505050565b6000600154905090565b600060036000838152602001908152602001600020549050600060046000838152602001908152602001600020600001541415610b4a576040517f08c379a0000000000000000000000000000000000000000000000000000000008152600401610b4190611299565b60405180910390fd5b60016003811115610b84577f4e487b7100000000000000000000000000000000000000000000000000000000600052602160045260246000fd5b6004600083815260200190815260200160002060040160019054906101000a900460ff166003811115610be0577f4e487b7100000000000000000000000000000000000000000000000000000000600052602160045260246000fd5b14610c20576040517f08c379a0000000000000000000000000000000000000000000000000000000008152600401610c17906112b9565b60405180910390fd5b600060046000838152602001908152602001600020905060028160040160016101000a81548160ff02191690836003811115610c85577f4e487b7100000000000000000000000000000000000000000000000000000000600052602160045260246000fd5b021790555060036004811115610cc4577f4e487b7100000000000000000000000000000000000000000000000000000000600052602160045260246000fd5b8160040160009054906101000a900460ff166004811115610d0e577f4e487b7100000000000000000000000000000000000000000000000000000000600052602160045260246000fd5b1415610d2857610d218160050154610d3b565b5050610d38565b610d358160050154610d9c565b50505b50565b806005541015610d80576040517f08c379a0000000000000000000000000000000000000000000000000000000008152600401610d77906111d9565b60405180910390fd5b8060056000828254610d9291906113b1565b9250508190555050565b8060056000828254610dae919061135b565b9250508190555050565b828054610dc490611449565b90600052602060002090601f016020900481019282610de65760008555610e2d565b82601f10610dff57805160ff1916838001178555610e2d565b82800160010185558215610e2d579182015b82811115610e2c578251825591602001919060010190610e11565b5b509050610e3a9190610ecb565b5090565b828054610e4a90611449565b90600052602060002090601f016020900481019282610e6c5760008555610eba565b82601f10610e7d5780548555610eba565b82800160010185558215610eba57600052602060002091601f016020900482015b82811115610eb9578254825591600101919060010190610e9e565b5b509050610ec79190610ecb565b5090565b5b80821115610ee4576000816000905550600101610ecc565b5090565b6000610efb610ef684611319565b6112f4565b905082815260208101848484011115610f1357600080fd5b610f1e84828561143a565b509392505050565b600081519050610f3581611701565b92915050565b600082601f830112610f4c57600080fd5b8135610f5c848260208601610ee8565b91505092915050565b600081359050610f7481611718565b92915050565b600081359050610f898161172f565b92915050565b600060208284031215610fa157600080fd5b6000610faf84828501610f26565b91505092915050565b600060208284031215610fca57600080fd5b6000610fd884828501610f65565b91505092915050565b600080600080600060a08688031215610ff957600080fd5b600061100788828901610f65565b955050602086013567ffffffffffffffff81111561102457600080fd5b61103088828901610f3b565b945050604086013567ffffffffffffffff81111561104d57600080fd5b61105988828901610f3b565b935050606061106a88828901610f7a565b925050608061107b88828901610f65565b9150509295509295909350565b611091816113e5565b82525050565b60006110a460238361134a565b91506110af82611593565b604082019050919050565b60006110c7601b8361134a565b91506110d2826115e2565b602082019050919050565b60006110ea601c8361134a565b91506110f58261160b565b602082019050919050565b600061110d60178361134a565b915061111882611634565b602082019050919050565b6000611130601f8361134a565b915061113b8261165d565b602082019050919050565b6000611153601c8361134a565b915061115e82611686565b602082019050919050565b600061117660118361134a565b9150611181826116af565b602082019050919050565b6000611199601c8361134a565b91506111a4826116d8565b602082019050919050565b6111b881611423565b82525050565b60006020820190506111d36000830184611088565b92915050565b600060208201905081810360008301526111f281611097565b9050919050565b60006020820190508181036000830152611212816110ba565b9050919050565b60006020820190508181036000830152611232816110dd565b9050919050565b6000602082019050818103600083015261125281611100565b9050919050565b6000602082019050818103600083015261127281611123565b9050919050565b6000602082019050818103600083015261129281611146565b9050919050565b600060208201905081810360008301526112b281611169565b9050919050565b600060208201905081810360008301526112d28161118c565b9050919050565b60006020820190506112ee60008301846111af565b92915050565b60006112fe61130f565b905061130a828261147b565b919050565b6000604051905090565b600067ffffffffffffffff82111561133457611333611553565b5b61133d82611582565b9050602081019050919050565b600082825260208201905092915050565b600061136682611423565b915061137183611423565b9250827fffffffffffffffffffffffffffffffffffffffffffffffffffffffffffffffff038211156113a6576113a56114f5565b5b828201905092915050565b60006113bc82611423565b91506113c783611423565b9250828210156113da576113d96114f5565b5b828203905092915050565b60006113f082611403565b9050919050565b60008115159050919050565b600073ffffffffffffffffffffffffffffffffffffffff82169050919050565b6000819050919050565b600060ff82169050919050565b82818337600083830152505050565b6000600282049050600182168061146157607f821691505b6020821081141561147557611474611524565b5b50919050565b61148482611582565b810181811067ffffffffffffffff821117156114a3576114a2611553565b5b80604052505050565b60006114b782611423565b91507fffffffffffffffffffffffffffffffffffffffffffffffffffffffffffffffff8214156114ea576114e96114f5565b5b600182019050919050565b7f4e487b7100000000000000000000000000000000000000000000000000000000600052601160045260246000fd5b7f4e487b7100000000000000000000000000000000000000000000000000000000600052602260045260246000fd5b7f4e487b7100000000000000000000000000000000000000000000000000000000600052604160045260246000fd5b6000601f19601f8301169050919050565b7f4e6f74206861766520656e61626c652062616c616e636520746f20776974686460008201527f7261770000000000000000000000000000000000000000000000000000000000602082015250565b7f4361706974616c2068617320616c726561647920657869737465640000000000600082015250565b7f4964206d757374206973206120706f736974697665206e756d62657200000000600082015250565b7f4361706974616c207479706520697320696e76616c6964000000000000000000600082015250565b7f56616c7565206d757374206973206120706f736974697665206e756d62657200600082015250565b7f53656e646572206973206e6f7420616e20616374697665207573657200000000600082015250565b7f4361706974616c206e6f7420666f756e64000000000000000000000000000000600082015250565b7f4361706974616c2068617320616c726561647920617070726f76656400000000600082015250565b61170a816113f7565b811461171557600080fd5b50565b61172181611423565b811461172c57600080fd5b50565b6117388161142d565b811461174357600080fd5b5056fea264697066735822122063378b347f5b605842dd54b3271cab3c595f4c540725884a81585ecc7e496a3564736f6c63430008040033608060405234801561001057600080fd5b5060016002819055506000600160003373ffffffffffffffffffffffffffffffffffffffff1673ffffffffffffffffffffffffffffffffffffffff1681526020019081526020016000209050338160010160006101000a81548173ffffffffffffffffffffffffffffffffffffffff021916908373ffffffffffffffffffffffffffffffffffffffff16021790555060018160010160146101000a81548160ff02191690831515021790555060018160010160156101000a81548160ff0219169083151502179055506000819080600181540180825580915050600190039060005260206000209060020201600090919091909150600082015481600001556001820160009054906101000a900473ffffffffffffffffffffffffffffffffffffffff168160010160006101000a81548173ffffffffffffffffffffffffffffffffffffffff021916908373ffffffffffffffffffffffffffffffffffffffff1602179055506001820160149054906101000a900460ff168160010160146101000a81548160ff0219169083151502179055506001820160159054906101000a900460ff168160010160156101000a81548160ff021916908315150217905550505050612b80806101e26000396000f3fe608060405234801561001057600080fd5b506004361061009d5760003560e01c80636f77926b116100665780636f77926b14610147578063704b6c021461017a5780638ada066e14610196578063a06a2060146101b4578063cdd87618146101e45761009d565b8062ce8e3e146100a25780630a908988146100c357806335a4a668146100df5780634202d214146100fb5780634d253b501461012b575b600080fd5b6100aa610200565b6040516100ba94939291906125fa565b60405180910390f35b6100dd60048036038101906100d89190612272565b610831565b005b6100f960048036038101906100f49190612272565b610c3c565b005b61011560048036038101906101109190612272565b611046565b604051610122919061265b565b60405180910390f35b61014560048036038101906101409190612272565b611170565b005b610161600480360381019061015c9190612272565b61157a565b60405161017194939291906125b5565b60405180910390f35b610194600480360381019061018f9190612272565b6118ad565b005b61019e611cb8565b6040516101ab91906127b6565b60405180910390f35b6101ce60048036038101906101c99190612272565b611cc2565b6040516101db919061265b565b60405180910390f35b6101fe60048036038101906101f99190612272565b611e44565b005b606080606080600073ffffffffffffffffffffffffffffffffffffffff16600160003373ffffffffffffffffffffffffffffffffffffffff1673ffffffffffffffffffffffffffffffffffffffff16815260200190815260200160002060010160009054906101000a900473ffffffffffffffffffffffffffffffffffffffff1673ffffffffffffffffffffffffffffffffffffffff1614156102d8576040517f08c379a00000000000000000000000000000000000000000000000000000000081526004016102cf90612736565b60405180910390fd5b60011515600160003373ffffffffffffffffffffffffffffffffffffffff1673ffffffffffffffffffffffffffffffffffffffff16815260200190815260200160002060010160149054906101000a900460ff1615151461036e576040517f08c379a000000000000000000000000000000000000000000000000000000000815260040161036590612756565b60405180910390fd5b600060025467ffffffffffffffff8111156103b2577f4e487b7100000000000000000000000000000000000000000000000000000000600052604160045260246000fd5b6040519080825280602002602001820160405280156103e05781602001602082028036833780820191505090505b509050600060025467ffffffffffffffff811115610427577f4e487b7100000000000000000000000000000000000000000000000000000000600052604160045260246000fd5b6040519080825280602002602001820160405280156104555781602001602082028036833780820191505090505b509050600060025467ffffffffffffffff81111561049c577f4e487b7100000000000000000000000000000000000000000000000000000000600052604160045260246000fd5b6040519080825280602002602001820160405280156104ca5781602001602082028036833780820191505090505b509050600060025467ffffffffffffffff811115610511577f4e487b7100000000000000000000000000000000000000000000000000000000600052604160045260246000fd5b60405190808252806020026020018201604052801561053f5781602001602082028036833780820191505090505b50905060005b60025481101561081a5760008181548110610589577f4e487b7100000000000000000000000000000000000000000000000000000000600052603260045260246000fd5b906000526020600020906002020160010160009054906101000a900473ffffffffffffffffffffffffffffffffffffffff168582815181106105f4577f4e487b7100000000000000000000000000000000000000000000000000000000600052603260045260246000fd5b602002602001019073ffffffffffffffffffffffffffffffffffffffff16908173ffffffffffffffffffffffffffffffffffffffff168152505060008181548110610668577f4e487b7100000000000000000000000000000000000000000000000000000000600052603260045260246000fd5b9060005260206000209060020201600001548482815181106106b3577f4e487b7100000000000000000000000000000000000000000000000000000000600052603260045260246000fd5b602002602001018181525050600081815481106106f9577f4e487b7100000000000000000000000000000000000000000000000000000000600052603260045260246000fd5b906000526020600020906002020160010160149054906101000a900460ff16838281518110610751577f4e487b7100000000000000000000000000000000000000000000000000000000600052603260045260246000fd5b6020026020010190151590811515815250506000818154811061079d577f4e487b7100000000000000000000000000000000000000000000000000000000600052603260045260246000fd5b906000526020600020906002020160010160159054906101000a900460ff168282815181106107f5577f4e487b7100000000000000000000000000000000000000000000000000000000600052603260045260246000fd5b6020026020010190151590811515815250508080610812906128d5565b915050610545565b508383838397509750975097505050505090919293565b600073ffffffffffffffffffffffffffffffffffffffff16600160003373ffffffffffffffffffffffffffffffffffffffff1673ffffffffffffffffffffffffffffffffffffffff16815260200190815260200160002060010160009054906101000a900473ffffffffffffffffffffffffffffffffffffffff1673ffffffffffffffffffffffffffffffffffffffff161415610903576040517f08c379a00000000000000000000000000000000000000000000000000000000081526004016108fa90612736565b60405180910390fd5b60011515600160003373ffffffffffffffffffffffffffffffffffffffff1673ffffffffffffffffffffffffffffffffffffffff16815260200190815260200160002060010160159054906101000a900460ff16151514610999576040517f08c379a0000000000000000000000000000000000000000000000000000000008152600401610990906126b6565b60405180910390fd5b60011515600160003373ffffffffffffffffffffffffffffffffffffffff1673ffffffffffffffffffffffffffffffffffffffff16815260200190815260200160002060010160149054906101000a900460ff16151514610a2f576040517f08c379a0000000000000000000000000000000000000000000000000000000008152600401610a2690612676565b60405180910390fd5b600073ffffffffffffffffffffffffffffffffffffffff16600160008373ffffffffffffffffffffffffffffffffffffffff1673ffffffffffffffffffffffffffffffffffffffff16815260200190815260200160002060010160009054906101000a900473ffffffffffffffffffffffffffffffffffffffff1673ffffffffffffffffffffffffffffffffffffffff161415610b01576040517f08c379a0000000000000000000000000000000000000000000000000000000008152600401610af8906126f6565b60405180910390fd5b3373ffffffffffffffffffffffffffffffffffffffff168173ffffffffffffffffffffffffffffffffffffffff161415610b70576040517f08c379a0000000000000000000000000000000000000000000000000000000008152600401610b6790612716565b60405180910390fd5b6000600160008373ffffffffffffffffffffffffffffffffffffffff1673ffffffffffffffffffffffffffffffffffffffff168152602001908152602001600020905060018160010160146101000a81548160ff02191690831515021790555060016000826000015481548110610c10577f4e487b7100000000000000000000000000000000000000000000000000000000600052603260045260246000fd5b906000526020600020906002020160010160146101000a81548160ff0219169083151502179055505050565b600073ffffffffffffffffffffffffffffffffffffffff16600160003373ffffffffffffffffffffffffffffffffffffffff1673ffffffffffffffffffffffffffffffffffffffff16815260200190815260200160002060010160009054906101000a900473ffffffffffffffffffffffffffffffffffffffff1673ffffffffffffffffffffffffffffffffffffffff161415610d0e576040517f08c379a0000000000000000000000000000000000000000000000000000000008152600401610d0590612736565b60405180910390fd5b60011515600160003373ffffffffffffffffffffffffffffffffffffffff1673ffffffffffffffffffffffffffffffffffffffff16815260200190815260200160002060010160159054906101000a900460ff16151514610da4576040517f08c379a0000000000000000000000000000000000000000000000000000000008152600401610d9b906126b6565b60405180910390fd5b60011515600160003373ffffffffffffffffffffffffffffffffffffffff1673ffffffffffffffffffffffffffffffffffffffff16815260200190815260200160002060010160149054906101000a900460ff16151514610e3a576040517f08c379a0000000000000000000000000000000000000000000000000000000008152600401610e3190612676565b60405180910390fd5b600073ffffffffffffffffffffffffffffffffffffffff16600160008373ffffffffffffffffffffffffffffffffffffffff1673ffffffffffffffffffffffffffffffffffffffff16815260200190815260200160002060010160009054906101000a900473ffffffffffffffffffffffffffffffffffffffff1673ffffffffffffffffffffffffffffffffffffffff161415610f0c576040517f08c379a0000000000000000000000000000000000000000000000000000000008152600401610f03906126f6565b60405180910390fd5b3373ffffffffffffffffffffffffffffffffffffffff168173ffffffffffffffffffffffffffffffffffffffff161415610f7b576040517f08c379a0000000000000000000000000000000000000000000000000000000008152600401610f72906126d6565b60405180910390fd5b6000600160008373ffffffffffffffffffffffffffffffffffffffff1673ffffffffffffffffffffffffffffffffffffffff168152602001908152602001600020905060008160010160146101000a81548160ff02191690831515021790555060008082600001548154811061101a577f4e487b7100000000000000000000000000000000000000000000000000000000600052603260045260246000fd5b906000526020600020906002020160010160146101000a81548160ff0219169083151502179055505050565b60008073ffffffffffffffffffffffffffffffffffffffff16600160003373ffffffffffffffffffffffffffffffffffffffff1673ffffffffffffffffffffffffffffffffffffffff16815260200190815260200160002060010160009054906101000a900473ffffffffffffffffffffffffffffffffffffffff1673ffffffffffffffffffffffffffffffffffffffff161415611119576040517f08c379a0000000000000000000000000000000000000000000000000000000008152600401611110906126f6565b60405180910390fd5b600160008373ffffffffffffffffffffffffffffffffffffffff1673ffffffffffffffffffffffffffffffffffffffff16815260200190815260200160002060010160149054906101000a900460ff169050919050565b600073ffffffffffffffffffffffffffffffffffffffff16600160003373ffffffffffffffffffffffffffffffffffffffff1673ffffffffffffffffffffffffffffffffffffffff16815260200190815260200160002060010160009054906101000a900473ffffffffffffffffffffffffffffffffffffffff1673ffffffffffffffffffffffffffffffffffffffff161415611242576040517f08c379a000000000000000000000000000000000000000000000000000000000815260040161123990612736565b60405180910390fd5b60011515600160003373ffffffffffffffffffffffffffffffffffffffff1673ffffffffffffffffffffffffffffffffffffffff16815260200190815260200160002060010160159054906101000a900460ff161515146112d8576040517f08c379a00000000000000000000000000000000000000000000000000000000081526004016112cf906126b6565b60405180910390fd5b60011515600160003373ffffffffffffffffffffffffffffffffffffffff1673ffffffffffffffffffffffffffffffffffffffff16815260200190815260200160002060010160149054906101000a900460ff1615151461136e576040517f08c379a000000000000000000000000000000000000000000000000000000000815260040161136590612676565b60405180910390fd5b600073ffffffffffffffffffffffffffffffffffffffff16600160008373ffffffffffffffffffffffffffffffffffffffff1673ffffffffffffffffffffffffffffffffffffffff16815260200190815260200160002060010160009054906101000a900473ffffffffffffffffffffffffffffffffffffffff1673ffffffffffffffffffffffffffffffffffffffff161415611440576040517f08c379a0000000000000000000000000000000000000000000000000000000008152600401611437906126f6565b60405180910390fd5b3373ffffffffffffffffffffffffffffffffffffffff168173ffffffffffffffffffffffffffffffffffffffff1614156114af576040517f08c379a00000000000000000000000000000000000000000000000000000000081526004016114a690612776565b60405180910390fd5b6000600160008373ffffffffffffffffffffffffffffffffffffffff1673ffffffffffffffffffffffffffffffffffffffff168152602001908152602001600020905060008160010160156101000a81548160ff02191690831515021790555060008082600001548154811061154e577f4e487b7100000000000000000000000000000000000000000000000000000000600052603260045260246000fd5b906000526020600020906002020160010160156101000a81548160ff0219169083151502179055505050565b600080600080600073ffffffffffffffffffffffffffffffffffffffff16600160003373ffffffffffffffffffffffffffffffffffffffff1673ffffffffffffffffffffffffffffffffffffffff16815260200190815260200160002060010160009054906101000a900473ffffffffffffffffffffffffffffffffffffffff1673ffffffffffffffffffffffffffffffffffffffff161415611652576040517f08c379a000000000000000000000000000000000000000000000000000000000815260040161164990612736565b60405180910390fd5b60011515600160003373ffffffffffffffffffffffffffffffffffffffff1673ffffffffffffffffffffffffffffffffffffffff16815260200190815260200160002060010160149054906101000a900460ff161515146116e8576040517f08c379a00000000000000000000000000000000000000000000000000000000081526004016116df90612756565b60405180910390fd5b600073ffffffffffffffffffffffffffffffffffffffff16600160008773ffffffffffffffffffffffffffffffffffffffff1673ffffffffffffffffffffffffffffffffffffffff16815260200190815260200160002060010160009054906101000a900473ffffffffffffffffffffffffffffffffffffffff1673ffffffffffffffffffffffffffffffffffffffff1614156117ba576040517f08c379a00000000000000000000000000000000000000000000000000000000081526004016117b1906126f6565b60405180910390fd5b84600160008773ffffffffffffffffffffffffffffffffffffffff1673ffffffffffffffffffffffffffffffffffffffff16815260200190815260200160002060000154600160008873ffffffffffffffffffffffffffffffffffffffff1673ffffffffffffffffffffffffffffffffffffffff16815260200190815260200160002060010160149054906101000a900460ff16600160008973ffffffffffffffffffffffffffffffffffffffff1673ffffffffffffffffffffffffffffffffffffffff16815260200190815260200160002060010160159054906101000a900460ff1693509350935093509193509193565b600073ffffffffffffffffffffffffffffffffffffffff16600160003373ffffffffffffffffffffffffffffffffffffffff1673ffffffffffffffffffffffffffffffffffffffff16815260200190815260200160002060010160009054906101000a900473ffffffffffffffffffffffffffffffffffffffff1673ffffffffffffffffffffffffffffffffffffffff16141561197f576040517f08c379a000000000000000000000000000000000000000000000000000000000815260040161197690612736565b60405180910390fd5b60011515600160003373ffffffffffffffffffffffffffffffffffffffff1673ffffffffffffffffffffffffffffffffffffffff16815260200190815260200160002060010160159054906101000a900460ff16151514611a15576040517f08c379a0000000000000000000000000000000000000000000000000000000008152600401611a0c906126b6565b60405180910390fd5b60011515600160003373ffffffffffffffffffffffffffffffffffffffff1673ffffffffffffffffffffffffffffffffffffffff16815260200190815260200160002060010160149054906101000a900460ff16151514611aab576040517f08c379a0000000000000000000000000000000000000000000000000000000008152600401611aa290612676565b60405180910390fd5b600073ffffffffffffffffffffffffffffffffffffffff16600160008373ffffffffffffffffffffffffffffffffffffffff1673ffffffffffffffffffffffffffffffffffffffff16815260200190815260200160002060010160009054906101000a900473ffffffffffffffffffffffffffffffffffffffff1673ffffffffffffffffffffffffffffffffffffffff161415611b7d576040517f08c379a0000000000000000000000000000000000000000000000000000000008152600401611b74906126f6565b60405180910390fd5b3373ffffffffffffffffffffffffffffffffffffffff168173ffffffffffffffffffffffffffffffffffffffff161415611bec576040517f08c379a0000000000000000000000000000000000000000000000000000000008152600401611be390612696565b60405180910390fd5b6000600160008373ffffffffffffffffffffffffffffffffffffffff1673ffffffffffffffffffffffffffffffffffffffff168152602001908152602001600020905060018160010160156101000a81548160ff02191690831515021790555060016000826000015481548110611c8c577f4e487b7100000000000000000000000000000000000000000000000000000000600052603260045260246000fd5b906000526020600020906002020160010160156101000a81548160ff0219169083151502179055505050565b6000600254905090565b60008073ffffffffffffffffffffffffffffffffffffffff16600160003373ffffffffffffffffffffffffffffffffffffffff1673ffffffffffffffffffffffffffffffffffffffff16815260200190815260200160002060010160009054906101000a900473ffffffffffffffffffffffffffffffffffffffff1673ffffffffffffffffffffffffffffffffffffffff161415611d95576040517f08c379a0000000000000000000000000000000000000000000000000000000008152600401611d8c906126f6565b60405180910390fd5b600160008373ffffffffffffffffffffffffffffffffffffffff1673ffffffffffffffffffffffffffffffffffffffff16815260200190815260200160002060010160159054906101000a900460ff168015611e3d5750600160008373ffffffffffffffffffffffffffffffffffffffff1673ffffffffffffffffffffffffffffffffffffffff16815260200190815260200160002060010160149054906101000a900460ff165b9050919050565b600073ffffffffffffffffffffffffffffffffffffffff16600160003373ffffffffffffffffffffffffffffffffffffffff1673ffffffffffffffffffffffffffffffffffffffff16815260200190815260200160002060010160009054906101000a900473ffffffffffffffffffffffffffffffffffffffff1673ffffffffffffffffffffffffffffffffffffffff161415611f16576040517f08c379a0000000000000000000000000000000000000000000000000000000008152600401611f0d90612736565b60405180910390fd5b60011515600160003373ffffffffffffffffffffffffffffffffffffffff1673ffffffffffffffffffffffffffffffffffffffff16815260200190815260200160002060010160149054906101000a900460ff16151514611fac576040517f08c379a0000000000000000000000000000000000000000000000000000000008152600401611fa390612756565b60405180910390fd5b600073ffffffffffffffffffffffffffffffffffffffff16600160008373ffffffffffffffffffffffffffffffffffffffff1673ffffffffffffffffffffffffffffffffffffffff16815260200190815260200160002060010160009054906101000a900473ffffffffffffffffffffffffffffffffffffffff1673ffffffffffffffffffffffffffffffffffffffff161461207d576040517f08c379a000000000000000000000000000000000000000000000000000000000815260040161207490612796565b60405180910390fd5b6000600160008373ffffffffffffffffffffffffffffffffffffffff1673ffffffffffffffffffffffffffffffffffffffff1681526020019081526020016000209050818160010160006101000a81548173ffffffffffffffffffffffffffffffffffffffff021916908373ffffffffffffffffffffffffffffffffffffffff16021790555060018160010160146101000a81548160ff02191690831515021790555060008160010160156101000a81548160ff02191690831515021790555060025481600001819055506000819080600181540180825580915050600190039060005260206000209060020201600090919091909150600082015481600001556001820160009054906101000a900473ffffffffffffffffffffffffffffffffffffffff168160010160006101000a81548173ffffffffffffffffffffffffffffffffffffffff021916908373ffffffffffffffffffffffffffffffffffffffff1602179055506001820160149054906101000a900460ff168160010160146101000a81548160ff0219169083151502179055506001820160159054906101000a900460ff168160010160156101000a81548160ff021916908315150217905550505060026000815480929190612254906128d5565b91905055505050565b60008135905061226c81612b33565b92915050565b60006020828403121561228457600080fd5b60006122928482850161225d565b91505092915050565b60006122a783836122e3565b60208301905092915050565b60006122bf838361241b565b60208301905092915050565b60006122d78383612597565b60208301905092915050565b6122ec8161288d565b82525050565b6122fb8161288d565b82525050565b600061230c82612801565b6123168185612849565b9350612321836127d1565b8060005b83811015612352578151612339888261229b565b975061234483612822565b925050600181019050612325565b5085935050505092915050565b600061236a8261280c565b612374818561285a565b935061237f836127e1565b8060005b838110156123b057815161239788826122b3565b97506123a28361282f565b925050600181019050612383565b5085935050505092915050565b60006123c882612817565b6123d2818561286b565b93506123dd836127f1565b8060005b8381101561240e5781516123f588826122cb565b97506124008361283c565b9250506001810190506123e1565b5085935050505092915050565b6124248161289f565b82525050565b6124338161289f565b82525050565b600061244660188361287c565b91506124518261294d565b602082019050919050565b6000612469601f8361287c565b915061247482612976565b602082019050919050565b600061248c601e8361287c565b91506124978261299f565b602082019050919050565b60006124af601e8361287c565b91506124ba826129c8565b602082019050919050565b60006124d2600e8361287c565b91506124dd826129f1565b602082019050919050565b60006124f5601c8361287c565b915061250082612a1a565b602082019050919050565b600061251860148361287c565b915061252382612a43565b602082019050919050565b600061253b60198361287c565b915061254682612a6c565b602082019050919050565b600061255e60218361287c565b915061256982612a95565b604082019050919050565b6000612581602b8361287c565b915061258c82612ae4565b604082019050919050565b6125a0816128cb565b82525050565b6125af816128cb565b82525050565b60006080820190506125ca60008301876122f2565b6125d760208301866125a6565b6125e4604083018561242a565b6125f1606083018461242a565b95945050505050565b600060808201905081810360008301526126148187612301565b9050818103602083015261262881866123bd565b9050818103604083015261263c818561235f565b90508181036060830152612650818461235f565b905095945050505050565b6000602082019050612670600083018461242a565b92915050565b6000602082019050818103600083015261268f81612439565b9050919050565b600060208201905081810360008301526126af8161245c565b9050919050565b600060208201905081810360008301526126cf8161247f565b9050919050565b600060208201905081810360008301526126ef816124a2565b9050919050565b6000602082019050818103600083015261270f816124c5565b9050919050565b6000602082019050818103600083015261272f816124e8565b9050919050565b6000602082019050818103600083015261274f8161250b565b9050919050565b6000602082019050818103600083015261276f8161252e565b9050919050565b6000602082019050818103600083015261278f81612551565b9050919050565b600060208201905081810360008301526127af81612574565b9050919050565b60006020820190506127cb60008301846125a6565b92915050565b6000819050602082019050919050565b6000819050602082019050919050565b6000819050602082019050919050565b600081519050919050565b600081519050919050565b600081519050919050565b6000602082019050919050565b6000602082019050919050565b6000602082019050919050565b600082825260208201905092915050565b600082825260208201905092915050565b600082825260208201905092915050565b600082825260208201905092915050565b6000612898826128ab565b9050919050565b60008115159050919050565b600073ffffffffffffffffffffffffffffffffffffffff82169050919050565b6000819050919050565b60006128e0826128cb565b91507fffffffffffffffffffffffffffffffffffffffffffffffffffffffffffffffff8214156129135761291261291e565b5b600182019050919050565b7f4e487b7100000000000000000000000000000000000000000000000000000000600052601160045260246000fd5b7f53656e64657220686173206265656e2064656163746976650000000000000000600082015250565b7f557365722063616e206e6f74207365742061646d696e207468656d73656c6600600082015250565b7f53656e646572206973206e6f7420616e2061646d696e6973747261746f720000600082015250565b7f557365722063616e206e6f74206465616374697665207468656d73656c660000600082015250565b7f55736572206e6f7420666f756e64000000000000000000000000000000000000600082015250565b7f557365722063616e206e6f7420616374697665207468656d73656c6600000000600082015250565b7f53656e646572206973206e6f7420612075736572000000000000000000000000600082015250565b7f53656e64657220686173206265656e2064656163746976656400000000000000600082015250565b7f557365722063616e206e6f7420756e7365742061646d696e207468656d73656c60008201527f6600000000000000000000000000000000000000000000000000000000000000602082015250565b7f557365722077697468207468697320616464726573732068617320616c72656160008201527f6479206578697473746564000000000000000000000000000000000000000000602082015250565b612b3c8161288d565b8114612b4757600080fd5b5056fea2646970667358221220fd655a900467ddc3776395b5ba93f9188a41885c4d40907d0746f6472bbca52164736f6c63430008040033",
  "immutableReferences": {},
  "source": "//SPDX-License-Identifier: UNLICENSED\r\npragma solidity ^0.8.0;\r\n\r\nimport \"./UserManager.sol\";\r\n\r\ncontract CapitalTransaction {\r\n    enum CapitalType{NONE,SHORT_TERM_ASSETS, LONG_TERM_ASSETS, LIABILITY, EQUITY}\r\n    enum CapitalStatus{NONE,PENDING,CONFIRMED,CANCELED}\r\n    \r\n    struct Capital {\r\n        uint256 Id;\r\n        uint256 Index;\r\n        string Title;\r\n        string Description;\r\n        CapitalType Type;\r\n        CapitalStatus Status;\r\n        uint256 Value;\r\n    }\r\n    \r\n    Capital[] capitals;\r\n    uint256 counter;\r\n    uint256 indexer;\r\n    mapping(uint256 => uint256) id2index;\r\n    mapping(uint256 => Capital) index2capital;\r\n    uint256 totalCapitalValue;\r\n    UserManager userManager = new UserManager();\r\n    \r\n    constructor(){\r\n        counter = 0;\r\n        totalCapitalValue = 0;\r\n    }\r\n    \r\n    modifier onlyActiveAdmin(){\r\n        require(userManager.isActiveAdmin(msg.sender) == true, \"Sender is not an active administrator\");\r\n        _;\r\n    }\r\n    \r\n    modifier onlyActiveUser(){\r\n        require(userManager.isActiveUser(msg.sender) == true, \"Sender is not an active user\");\r\n        _;\r\n    }\r\n    \r\n    function getBalance() public view returns(uint256){\r\n        return totalCapitalValue;\r\n    }\r\n    \r\n    function getCount() public view returns(uint256){\r\n        return counter;\r\n    }\r\n    \r\n    function createCapital(uint256 id, string memory title, string memory description, uint8 capitalType, uint256 value) \r\n    public onlyActiveUser() {\r\n        require(id >= 0, \"Id must is a positive number\");\r\n        require(value >= 0, \"Value must is a positive number\");\r\n        require(capitalType >= 0 && capitalType <= 3 , \"Capital type is invalid\");\r\n        uint256 index = id2index[id];\r\n        require(index2capital[index].Id == 0, \"Capital has already existed\");\r\n        \r\n        Capital storage capital = index2capital[index];\r\n        capital.Id = id;\r\n        capital.Index = counter;\r\n        capital.Title = title;\r\n        capital.Description = description;\r\n        capital.Type = CapitalType(capitalType);\r\n        capital.Value = value;\r\n        capital.Status = CapitalStatus.PENDING;\r\n        \r\n        id2index[id] = counter;\r\n        \r\n        counter++;\r\n        capitals.push(capital);\r\n    }\r\n    \r\n    function updateCapital(uint256 id, string memory title, string memory description, uint8 capitalType, uint256 value) \r\n    public onlyActiveUser(){\r\n        uint256 index = id2index[id];\r\n        require(index2capital[index].Id != 0, \"Capital not found\");\r\n        require(id >= 0, \"Id must is a positive number\");\r\n        require(capitalType >= 0 && capitalType <= 3 , \"Capital type is invalid\");\r\n        \r\n        Capital storage capital = index2capital[index];\r\n        capital.Title = title;\r\n        capital.Description = description;\r\n        capital.Type = CapitalType(capitalType);\r\n        capital.Value = value;\r\n    }\r\n    \r\n    function confirm(uint256 id) public {\r\n        uint256 index = id2index[id];\r\n        require(index2capital[index].Id != 0, \"Capital not found\");\r\n        require(index2capital[index].Status == CapitalStatus.PENDING, \"Capital has already approved\");\r\n        \r\n        Capital storage capital = index2capital[index];\r\n        capital.Status = CapitalStatus.CONFIRMED;\r\n        \r\n        if (capital.Type == CapitalType.LIABILITY)\r\n        {\r\n            withdraw(capital.Value);\r\n            return;\r\n        }\r\n        deposite(capital.Value);\r\n    }\r\n    \r\n    function cancel(uint256 id) public {\r\n        uint256 index = id2index[id];\r\n        require(index2capital[index].Id != 0, \"Capital not found\");\r\n        require(index2capital[id].Status == CapitalStatus.PENDING, \"Capital has already approved\");\r\n        \r\n        Capital storage capital = index2capital[index];\r\n        capital.Status = CapitalStatus.CANCELED;\r\n    }\r\n    \r\n    function deposite(uint256 value) private{\r\n        totalCapitalValue += value;\r\n    }\r\n    \r\n    function withdraw(uint256 value) private{\r\n        if (totalCapitalValue < value){\r\n            revert(\"Not have enable balance to withdraw\");\r\n        }\r\n        totalCapitalValue -= value;\r\n    }\r\n}\r\n",
  "sourcePath": "D:/CorporateCapitalManagement/SmartContract/contracts/CapitalTransaction.sol",
  "compiler": {
    "name": "solc",
    "version": "0.8.4+commit.c7e474f2.Emscripten.clang"
  },
  "schemaVersion": "3.3.4",
  "updatedAt": "2021-06-09T14:32:52.683Z",
  "devdoc": {
    "kind": "dev",
    "methods": {},
    "version": 1
  },
  "userdoc": {
    "kind": "user",
    "methods": {},
    "version": 1
  }
}