{
  "contractName": "CapitalTransaction",
  "abi": [
    {
      "inputs": [
        {
          "internalType": "uint256",
          "name": "",
          "type": "uint256"
        }
      ],
      "name": "transactions",
      "outputs": [
        {
          "internalType": "contract CapitalTransaction",
          "name": "",
          "type": "address"
        }
      ],
      "stateMutability": "view",
      "type": "function"
    },
    {
      "inputs": [
        {
          "internalType": "uint256",
          "name": "",
          "type": "uint256"
        }
      ],
      "name": "users",
      "outputs": [
        {
          "internalType": "address",
          "name": "",
          "type": "address"
        }
      ],
      "stateMutability": "view",
      "type": "function"
    }
  ],
  "bytecode": "0x608060405234801561001057600080fd5b50610258806100206000396000f3fe608060405234801561001057600080fd5b50600436106100365760003560e01c8063365b98b21461003b5780639ace38c21461006b575b600080fd5b6100556004803603810190610050919061012e565b61009b565b6040516100629190610175565b60405180910390f35b6100856004803603810190610080919061012e565b6100da565b6040516100929190610190565b60405180910390f35b600081815481106100ab57600080fd5b906000526020600020016000915054906101000a900473ffffffffffffffffffffffffffffffffffffffff1681565b600181815481106100ea57600080fd5b906000526020600020016000915054906101000a900473ffffffffffffffffffffffffffffffffffffffff1681565b6000813590506101288161020b565b92915050565b60006020828403121561014057600080fd5b600061014e84828501610119565b91505092915050565b610160816101ab565b82525050565b61016f816101e7565b82525050565b600060208201905061018a6000830184610157565b92915050565b60006020820190506101a56000830184610166565b92915050565b60006101b6826101bd565b9050919050565b600073ffffffffffffffffffffffffffffffffffffffff82169050919050565b6000819050919050565b60006101f2826101f9565b9050919050565b6000610204826101bd565b9050919050565b610214816101dd565b811461021f57600080fd5b5056fea2646970667358221220c582c27a4786e3a6b24e0daf67520849cb7a706af8a052390dd2276fb9c69d7064736f6c63430008030033",
  "immutableReferences": {},
  "source": "pragma solidity ^0.8.0;\r\n\r\ncontract CapitalTransaction {\r\n    enum CapitalType{SHORT_TERM_ASSETS, LONG_TERM_ASSETS, LIABILITY, EQUITY}\r\n\r\n    struct Capital {\r\n        uint256 Id;\r\n        uint256 Index;\r\n        string Title;\r\n        string Description;\r\n        CapitalType Type;\r\n        uint256 Value;\r\n        address Creator;\r\n        address Approver;\r\n    }\r\n\r\n    address[] public users;\r\n    CapitalTransaction[] public transactions;\r\n    \r\n}\r\n",
  "sourcePath": "D:/CorporateCapitalManagement/SmartContract/contracts/CapitalTransaction.sol",
  "compiler": {
    "name": "solc",
    "version": "0.8.3+commit.8d00100c.Emscripten.clang"
  },
  "schemaVersion": "3.3.4",
  "updatedAt": "2021-04-14T13:06:17.140Z",
  "devdoc": {
    "kind": "dev",
    "methods": {},
    "version": 1
  },
  "userdoc": {
    "kind": "user",
    "methods": {},
    "version": 1
  }
}