{
  "contractName": "UserManager",
  "abi": [
    {
      "inputs": [],
      "stateMutability": "nonpayable",
      "type": "constructor"
    },
    {
      "inputs": [],
      "name": "getAllUsers",
      "outputs": [
        {
          "internalType": "address[]",
          "name": "",
          "type": "address[]"
        }
      ],
      "stateMutability": "view",
      "type": "function",
      "constant": true
    },
    {
      "inputs": [
        {
          "internalType": "address",
          "name": "userAddress",
          "type": "address"
        }
      ],
      "name": "addUser",
      "outputs": [],
      "stateMutability": "nonpayable",
      "type": "function"
    },
    {
      "inputs": [
        {
          "internalType": "address",
          "name": "userAddress",
          "type": "address"
        },
        {
          "internalType": "bool",
          "name": "isActive",
          "type": "bool"
        }
      ],
      "name": "setActive",
      "outputs": [],
      "stateMutability": "nonpayable",
      "type": "function"
    },
    {
      "inputs": [
        {
          "internalType": "address",
          "name": "userAddress",
          "type": "address"
        },
        {
          "internalType": "bool",
          "name": "isAdmin",
          "type": "bool"
        }
      ],
      "name": "setAdmin",
      "outputs": [],
      "stateMutability": "nonpayable",
      "type": "function"
    }
  ],
  "bytecode": "0x608060405234801561001057600080fd5b5060026000815480929190610024906101f0565b91905055506003600081548092919061003c906101f0565b91905055506000737e576e3ffdff96581f035b29b2e084299b72900c90506040518060a00160405280600254815260200160035481526020013373ffffffffffffffffffffffffffffffffffffffff168152602001600115158152602001600115158152506000808373ffffffffffffffffffffffffffffffffffffffff1673ffffffffffffffffffffffffffffffffffffffff168152602001908152602001600020600082015181600001556020820151816001015560408201518160020160006101000a81548173ffffffffffffffffffffffffffffffffffffffff021916908373ffffffffffffffffffffffffffffffffffffffff16021790555060608201518160020160146101000a81548160ff02191690831515021790555060808201518160020160156101000a81548160ff0219169083151502179055509050506001819080600181540180825580915050600190039060005260206000200160009091909190916101000a81548173ffffffffffffffffffffffffffffffffffffffff021916908373ffffffffffffffffffffffffffffffffffffffff16021790555050610268565b6000819050919050565b60006101fb826101e6565b91507fffffffffffffffffffffffffffffffffffffffffffffffffffffffffffffffff82141561022e5761022d610239565b5b600182019050919050565b7f4e487b7100000000000000000000000000000000000000000000000000000000600052601160045260246000fd5b610bda806102776000396000f3fe608060405234801561001057600080fd5b506004361061004c5760003560e01c80632ce962cf14610051578063421b2d8b1461006d5780634b0bddd214610089578063e2842d79146100a5575b600080fd5b61006b600480360381019061006691906107d9565b6100c3565b005b610087600480360381019061008291906107b0565b6102bf565b005b6100a3600480360381019061009e91906107d9565b6104fc565b005b6100ad6106f8565b6040516100ba9190610926565b60405180910390f35b60008060003373ffffffffffffffffffffffffffffffffffffffff1673ffffffffffffffffffffffffffffffffffffffff168152602001908152602001600020600001541415610148576040517f08c379a000000000000000000000000000000000000000000000000000000000815260040161013f906109a8565b60405180910390fd5b600115156000803373ffffffffffffffffffffffffffffffffffffffff1673ffffffffffffffffffffffffffffffffffffffff16815260200190815260200160002060020160159054906101000a900460ff161515146101dd576040517f08c379a00000000000000000000000000000000000000000000000000000000081526004016101d490610988565b60405180910390fd5b60008060008473ffffffffffffffffffffffffffffffffffffffff1673ffffffffffffffffffffffffffffffffffffffff168152602001908152602001600020600001541415610262576040517f08c379a000000000000000000000000000000000000000000000000000000000815260040161025990610948565b60405180910390fd5b806000808473ffffffffffffffffffffffffffffffffffffffff1673ffffffffffffffffffffffffffffffffffffffff16815260200190815260200160002060020160146101000a81548160ff0219169083151502179055505050565b60008060008373ffffffffffffffffffffffffffffffffffffffff1673ffffffffffffffffffffffffffffffffffffffff1681526020019081526020016000206000015414610343576040517f08c379a000000000000000000000000000000000000000000000000000000000815260040161033a90610968565b60405180910390fd5b6002600081548092919061035690610a5a565b91905055506003600081548092919061036e90610a5a565b91905055506040518060a00160405280600254815260200160035481526020013373ffffffffffffffffffffffffffffffffffffffff168152602001600015158152602001600015158152506000808373ffffffffffffffffffffffffffffffffffffffff1673ffffffffffffffffffffffffffffffffffffffff168152602001908152602001600020600082015181600001556020820151816001015560408201518160020160006101000a81548173ffffffffffffffffffffffffffffffffffffffff021916908373ffffffffffffffffffffffffffffffffffffffff16021790555060608201518160020160146101000a81548160ff02191690831515021790555060808201518160020160156101000a81548160ff0219169083151502179055509050506001819080600181540180825580915050600190039060005260206000200160009091909190916101000a81548173ffffffffffffffffffffffffffffffffffffffff021916908373ffffffffffffffffffffffffffffffffffffffff16021790555050565b60008060003373ffffffffffffffffffffffffffffffffffffffff1673ffffffffffffffffffffffffffffffffffffffff168152602001908152602001600020600001541415610581576040517f08c379a0000000000000000000000000000000000000000000000000000000008152600401610578906109a8565b60405180910390fd5b600115156000803373ffffffffffffffffffffffffffffffffffffffff1673ffffffffffffffffffffffffffffffffffffffff16815260200190815260200160002060020160159054906101000a900460ff16151514610616576040517f08c379a000000000000000000000000000000000000000000000000000000000815260040161060d90610988565b60405180910390fd5b60008060008473ffffffffffffffffffffffffffffffffffffffff1673ffffffffffffffffffffffffffffffffffffffff16815260200190815260200160002060000154141561069b576040517f08c379a000000000000000000000000000000000000000000000000000000000815260040161069290610948565b60405180910390fd5b806000808473ffffffffffffffffffffffffffffffffffffffff1673ffffffffffffffffffffffffffffffffffffffff16815260200190815260200160002060020160156101000a81548160ff0219169083151502179055505050565b6060600180548060200260200160405190810160405280929190818152602001828054801561077c57602002820191906000526020600020905b8160009054906101000a900473ffffffffffffffffffffffffffffffffffffffff1673ffffffffffffffffffffffffffffffffffffffff1681526020019060010190808311610732575b5050505050905090565b60008135905061079581610b76565b92915050565b6000813590506107aa81610b8d565b92915050565b6000602082840312156107c257600080fd5b60006107d084828501610786565b91505092915050565b600080604083850312156107ec57600080fd5b60006107fa85828601610786565b925050602061080b8582860161079b565b9150509250929050565b6000610821838361082d565b60208301905092915050565b61083681610a12565b82525050565b6000610847826109d8565b61085181856109f0565b935061085c836109c8565b8060005b8381101561088d5781516108748882610815565b975061087f836109e3565b925050600181019050610860565b5085935050505092915050565b60006108a7600f83610a01565b91506108b282610ad2565b602082019050919050565b60006108ca601183610a01565b91506108d582610afb565b602082019050919050565b60006108ed600b83610a01565b91506108f882610b24565b602082019050919050565b6000610910601083610a01565b915061091b82610b4d565b602082019050919050565b60006020820190508181036000830152610940818461083c565b905092915050565b600060208201905081810360008301526109618161089a565b9050919050565b60006020820190508181036000830152610981816108bd565b9050919050565b600060208201905081810360008301526109a1816108e0565b9050919050565b600060208201905081810360008301526109c181610903565b9050919050565b6000819050602082019050919050565b600081519050919050565b6000602082019050919050565b600082825260208201905092915050565b600082825260208201905092915050565b6000610a1d82610a30565b9050919050565b60008115159050919050565b600073ffffffffffffffffffffffffffffffffffffffff82169050919050565b6000819050919050565b6000610a6582610a50565b91507fffffffffffffffffffffffffffffffffffffffffffffffffffffffffffffffff821415610a9857610a97610aa3565b5b600182019050919050565b7f4e487b7100000000000000000000000000000000000000000000000000000000600052601160045260246000fd5b7f55736572206e6f7420666f756e642e0000000000000000000000000000000000600082015250565b7f5573657220616c7265616479206861732e000000000000000000000000000000600082015250565b7f41646d696e206f6e6c792e000000000000000000000000000000000000000000600082015250565b7f5573657220697320756e6b6e6f776e2e00000000000000000000000000000000600082015250565b610b7f81610a12565b8114610b8a57600080fd5b50565b610b9681610a24565b8114610ba157600080fd5b5056fea26469706673582212204f7d8d61ce8598654baec42669f6997830b5269527e0f1abe5158d9ee8c4d0b064736f6c63430008030033",
  "immutableReferences": {},
  "source": "pragma solidity ^0.8.0;\r\n\r\ncontract UserManager{\r\n\r\n    struct User{\r\n        uint256 Id; // can have duplicates\r\n        uint256 Index; // is unique\r\n        address Creator;\r\n        bool isActive;\r\n        bool isAdmin;\r\n    }\r\n\r\n    mapping(address => User) userMap;\r\n    address[] userAddressList;\r\n    uint256 userCount; // number of users in list\r\n    uint256 currentIndex;\r\n\r\n    constructor(){\r\n        userCount++;\r\n        currentIndex++;\r\n\r\n        address userAddress = address(0x7e576E3FFdFf96581f035B29B2E084299b72900c);\r\n        userMap[userAddress] = User(userCount, currentIndex, msg.sender, true, true);\r\n        userAddressList.push(userAddress);\r\n    }\r\n\r\n    modifier onlyAdmin(){\r\n        require(userMap[msg.sender].Id != 0, \"User is unknown.\");\r\n        require(userMap[msg.sender].isAdmin == true, \"Admin only.\");\r\n        _;\r\n    }\r\n\r\n    function getAllUsers() public view returns(address[] memory){\r\n        return userAddressList;\r\n    }\r\n\r\n    function addUser(address userAddress) public{\r\n        require(userMap[userAddress].Id == 0, \"User already has.\");\r\n\r\n        userCount++;\r\n        currentIndex++;\r\n\r\n        userMap[userAddress] = User(userCount, currentIndex, msg.sender, false, false);\r\n        userAddressList.push(userAddress);\r\n    }\r\n\r\n    function setActive(address userAddress ,bool isActive) public onlyAdmin(){\r\n        require(userMap[userAddress].Id != 0, \"User not found.\");\r\n        userMap[userAddress].isActive = isActive;\r\n    }\r\n\r\n    function setAdmin(address userAddress, bool isAdmin) public onlyAdmin(){\r\n        require(userMap[userAddress].Id != 0, \"User not found.\");\r\n        userMap[userAddress].isAdmin = isAdmin;\r\n    }\r\n}",
  "sourcePath": "D:/CorporateCapitalManagement/SmartContract/contracts/UserManager.sol",
  "compiler": {
    "name": "solc",
    "version": "0.8.3+commit.8d00100c.Emscripten.clang"
  },
  "schemaVersion": "3.3.4",
  "updatedAt": "2021-04-14T14:45:35.198Z",
  "networkType": "ethereum",
  "devdoc": {
    "kind": "dev",
    "methods": {},
    "version": 1
  },
  "userdoc": {
    "kind": "user",
    "methods": {},
    "version": 1
  }
}