{
  "contractName": "UserManager",
  "abi": [
    {
      "inputs": [],
      "stateMutability": "nonpayable",
      "type": "constructor"
    },
    {
      "inputs": [
        {
          "internalType": "address",
          "name": "userAddress",
          "type": "address"
        }
      ],
      "name": "createUser",
      "outputs": [],
      "stateMutability": "nonpayable",
      "type": "function"
    },
    {
      "inputs": [
        {
          "internalType": "address",
          "name": "userAddress",
          "type": "address"
        }
      ],
      "name": "activeUser",
      "outputs": [],
      "stateMutability": "nonpayable",
      "type": "function"
    },
    {
      "inputs": [
        {
          "internalType": "address",
          "name": "userAddress",
          "type": "address"
        }
      ],
      "name": "deactiveUser",
      "outputs": [],
      "stateMutability": "nonpayable",
      "type": "function"
    },
    {
      "inputs": [
        {
          "internalType": "address",
          "name": "userAddress",
          "type": "address"
        }
      ],
      "name": "setAdmin",
      "outputs": [],
      "stateMutability": "nonpayable",
      "type": "function"
    },
    {
      "inputs": [
        {
          "internalType": "address",
          "name": "userAddress",
          "type": "address"
        }
      ],
      "name": "unsetAdmin",
      "outputs": [],
      "stateMutability": "nonpayable",
      "type": "function"
    },
    {
      "inputs": [],
      "name": "getCounter",
      "outputs": [
        {
          "internalType": "uint256",
          "name": "",
          "type": "uint256"
        }
      ],
      "stateMutability": "view",
      "type": "function"
    },
    {
      "inputs": [],
      "name": "getUsers",
      "outputs": [
        {
          "internalType": "address[]",
          "name": "",
          "type": "address[]"
        },
        {
          "internalType": "uint256[]",
          "name": "",
          "type": "uint256[]"
        },
        {
          "internalType": "bool[]",
          "name": "",
          "type": "bool[]"
        },
        {
          "internalType": "bool[]",
          "name": "",
          "type": "bool[]"
        }
      ],
      "stateMutability": "view",
      "type": "function"
    },
    {
      "inputs": [
        {
          "internalType": "address",
          "name": "userAddress",
          "type": "address"
        }
      ],
      "name": "getUser",
      "outputs": [
        {
          "internalType": "address",
          "name": "",
          "type": "address"
        },
        {
          "internalType": "uint256",
          "name": "",
          "type": "uint256"
        },
        {
          "internalType": "bool",
          "name": "",
          "type": "bool"
        },
        {
          "internalType": "bool",
          "name": "",
          "type": "bool"
        }
      ],
      "stateMutability": "view",
      "type": "function"
    },
    {
      "inputs": [
        {
          "internalType": "address",
          "name": "userAddress",
          "type": "address"
        }
      ],
      "name": "isActiveAdmin",
      "outputs": [
        {
          "internalType": "bool",
          "name": "",
          "type": "bool"
        }
      ],
      "stateMutability": "view",
      "type": "function"
    },
    {
      "inputs": [
        {
          "internalType": "address",
          "name": "userAddress",
          "type": "address"
        }
      ],
      "name": "isActiveUser",
      "outputs": [
        {
          "internalType": "bool",
          "name": "",
          "type": "bool"
        }
      ],
      "stateMutability": "view",
      "type": "function"
    }
  ],
  "bytecode": "0x608060405234801561001057600080fd5b5060016002819055506000600160003373ffffffffffffffffffffffffffffffffffffffff1673ffffffffffffffffffffffffffffffffffffffff1681526020019081526020016000209050338160010160006101000a81548173ffffffffffffffffffffffffffffffffffffffff021916908373ffffffffffffffffffffffffffffffffffffffff16021790555060018160010160146101000a81548160ff02191690831515021790555060018160010160156101000a81548160ff0219169083151502179055506000819080600181540180825580915050600190039060005260206000209060020201600090919091909150600082015481600001556001820160009054906101000a900473ffffffffffffffffffffffffffffffffffffffff168160010160006101000a81548173ffffffffffffffffffffffffffffffffffffffff021916908373ffffffffffffffffffffffffffffffffffffffff1602179055506001820160149054906101000a900460ff168160010160146101000a81548160ff0219169083151502179055506001820160159054906101000a900460ff168160010160156101000a81548160ff021916908315150217905550505050612b80806101e26000396000f3fe608060405234801561001057600080fd5b506004361061009d5760003560e01c80636f77926b116100665780636f77926b14610147578063704b6c021461017a5780638ada066e14610196578063a06a2060146101b4578063cdd87618146101e45761009d565b8062ce8e3e146100a25780630a908988146100c357806335a4a668146100df5780634202d214146100fb5780634d253b501461012b575b600080fd5b6100aa610200565b6040516100ba94939291906125fa565b60405180910390f35b6100dd60048036038101906100d89190612272565b610831565b005b6100f960048036038101906100f49190612272565b610c3c565b005b61011560048036038101906101109190612272565b611046565b604051610122919061265b565b60405180910390f35b61014560048036038101906101409190612272565b611170565b005b610161600480360381019061015c9190612272565b61157a565b60405161017194939291906125b5565b60405180910390f35b610194600480360381019061018f9190612272565b6118ad565b005b61019e611cb8565b6040516101ab91906127b6565b60405180910390f35b6101ce60048036038101906101c99190612272565b611cc2565b6040516101db919061265b565b60405180910390f35b6101fe60048036038101906101f99190612272565b611e44565b005b606080606080600073ffffffffffffffffffffffffffffffffffffffff16600160003373ffffffffffffffffffffffffffffffffffffffff1673ffffffffffffffffffffffffffffffffffffffff16815260200190815260200160002060010160009054906101000a900473ffffffffffffffffffffffffffffffffffffffff1673ffffffffffffffffffffffffffffffffffffffff1614156102d8576040517f08c379a00000000000000000000000000000000000000000000000000000000081526004016102cf90612736565b60405180910390fd5b60011515600160003373ffffffffffffffffffffffffffffffffffffffff1673ffffffffffffffffffffffffffffffffffffffff16815260200190815260200160002060010160149054906101000a900460ff1615151461036e576040517f08c379a000000000000000000000000000000000000000000000000000000000815260040161036590612756565b60405180910390fd5b600060025467ffffffffffffffff8111156103b2577f4e487b7100000000000000000000000000000000000000000000000000000000600052604160045260246000fd5b6040519080825280602002602001820160405280156103e05781602001602082028036833780820191505090505b509050600060025467ffffffffffffffff811115610427577f4e487b7100000000000000000000000000000000000000000000000000000000600052604160045260246000fd5b6040519080825280602002602001820160405280156104555781602001602082028036833780820191505090505b509050600060025467ffffffffffffffff81111561049c577f4e487b7100000000000000000000000000000000000000000000000000000000600052604160045260246000fd5b6040519080825280602002602001820160405280156104ca5781602001602082028036833780820191505090505b509050600060025467ffffffffffffffff811115610511577f4e487b7100000000000000000000000000000000000000000000000000000000600052604160045260246000fd5b60405190808252806020026020018201604052801561053f5781602001602082028036833780820191505090505b50905060005b60025481101561081a5760008181548110610589577f4e487b7100000000000000000000000000000000000000000000000000000000600052603260045260246000fd5b906000526020600020906002020160010160009054906101000a900473ffffffffffffffffffffffffffffffffffffffff168582815181106105f4577f4e487b7100000000000000000000000000000000000000000000000000000000600052603260045260246000fd5b602002602001019073ffffffffffffffffffffffffffffffffffffffff16908173ffffffffffffffffffffffffffffffffffffffff168152505060008181548110610668577f4e487b7100000000000000000000000000000000000000000000000000000000600052603260045260246000fd5b9060005260206000209060020201600001548482815181106106b3577f4e487b7100000000000000000000000000000000000000000000000000000000600052603260045260246000fd5b602002602001018181525050600081815481106106f9577f4e487b7100000000000000000000000000000000000000000000000000000000600052603260045260246000fd5b906000526020600020906002020160010160149054906101000a900460ff16838281518110610751577f4e487b7100000000000000000000000000000000000000000000000000000000600052603260045260246000fd5b6020026020010190151590811515815250506000818154811061079d577f4e487b7100000000000000000000000000000000000000000000000000000000600052603260045260246000fd5b906000526020600020906002020160010160159054906101000a900460ff168282815181106107f5577f4e487b7100000000000000000000000000000000000000000000000000000000600052603260045260246000fd5b6020026020010190151590811515815250508080610812906128d5565b915050610545565b508383838397509750975097505050505090919293565b600073ffffffffffffffffffffffffffffffffffffffff16600160003373ffffffffffffffffffffffffffffffffffffffff1673ffffffffffffffffffffffffffffffffffffffff16815260200190815260200160002060010160009054906101000a900473ffffffffffffffffffffffffffffffffffffffff1673ffffffffffffffffffffffffffffffffffffffff161415610903576040517f08c379a00000000000000000000000000000000000000000000000000000000081526004016108fa90612736565b60405180910390fd5b60011515600160003373ffffffffffffffffffffffffffffffffffffffff1673ffffffffffffffffffffffffffffffffffffffff16815260200190815260200160002060010160159054906101000a900460ff16151514610999576040517f08c379a0000000000000000000000000000000000000000000000000000000008152600401610990906126b6565b60405180910390fd5b60011515600160003373ffffffffffffffffffffffffffffffffffffffff1673ffffffffffffffffffffffffffffffffffffffff16815260200190815260200160002060010160149054906101000a900460ff16151514610a2f576040517f08c379a0000000000000000000000000000000000000000000000000000000008152600401610a2690612676565b60405180910390fd5b600073ffffffffffffffffffffffffffffffffffffffff16600160008373ffffffffffffffffffffffffffffffffffffffff1673ffffffffffffffffffffffffffffffffffffffff16815260200190815260200160002060010160009054906101000a900473ffffffffffffffffffffffffffffffffffffffff1673ffffffffffffffffffffffffffffffffffffffff161415610b01576040517f08c379a0000000000000000000000000000000000000000000000000000000008152600401610af8906126f6565b60405180910390fd5b3373ffffffffffffffffffffffffffffffffffffffff168173ffffffffffffffffffffffffffffffffffffffff161415610b70576040517f08c379a0000000000000000000000000000000000000000000000000000000008152600401610b6790612716565b60405180910390fd5b6000600160008373ffffffffffffffffffffffffffffffffffffffff1673ffffffffffffffffffffffffffffffffffffffff168152602001908152602001600020905060018160010160146101000a81548160ff02191690831515021790555060016000826000015481548110610c10577f4e487b7100000000000000000000000000000000000000000000000000000000600052603260045260246000fd5b906000526020600020906002020160010160146101000a81548160ff0219169083151502179055505050565b600073ffffffffffffffffffffffffffffffffffffffff16600160003373ffffffffffffffffffffffffffffffffffffffff1673ffffffffffffffffffffffffffffffffffffffff16815260200190815260200160002060010160009054906101000a900473ffffffffffffffffffffffffffffffffffffffff1673ffffffffffffffffffffffffffffffffffffffff161415610d0e576040517f08c379a0000000000000000000000000000000000000000000000000000000008152600401610d0590612736565b60405180910390fd5b60011515600160003373ffffffffffffffffffffffffffffffffffffffff1673ffffffffffffffffffffffffffffffffffffffff16815260200190815260200160002060010160159054906101000a900460ff16151514610da4576040517f08c379a0000000000000000000000000000000000000000000000000000000008152600401610d9b906126b6565b60405180910390fd5b60011515600160003373ffffffffffffffffffffffffffffffffffffffff1673ffffffffffffffffffffffffffffffffffffffff16815260200190815260200160002060010160149054906101000a900460ff16151514610e3a576040517f08c379a0000000000000000000000000000000000000000000000000000000008152600401610e3190612676565b60405180910390fd5b600073ffffffffffffffffffffffffffffffffffffffff16600160008373ffffffffffffffffffffffffffffffffffffffff1673ffffffffffffffffffffffffffffffffffffffff16815260200190815260200160002060010160009054906101000a900473ffffffffffffffffffffffffffffffffffffffff1673ffffffffffffffffffffffffffffffffffffffff161415610f0c576040517f08c379a0000000000000000000000000000000000000000000000000000000008152600401610f03906126f6565b60405180910390fd5b3373ffffffffffffffffffffffffffffffffffffffff168173ffffffffffffffffffffffffffffffffffffffff161415610f7b576040517f08c379a0000000000000000000000000000000000000000000000000000000008152600401610f72906126d6565b60405180910390fd5b6000600160008373ffffffffffffffffffffffffffffffffffffffff1673ffffffffffffffffffffffffffffffffffffffff168152602001908152602001600020905060008160010160146101000a81548160ff02191690831515021790555060008082600001548154811061101a577f4e487b7100000000000000000000000000000000000000000000000000000000600052603260045260246000fd5b906000526020600020906002020160010160146101000a81548160ff0219169083151502179055505050565b60008073ffffffffffffffffffffffffffffffffffffffff16600160003373ffffffffffffffffffffffffffffffffffffffff1673ffffffffffffffffffffffffffffffffffffffff16815260200190815260200160002060010160009054906101000a900473ffffffffffffffffffffffffffffffffffffffff1673ffffffffffffffffffffffffffffffffffffffff161415611119576040517f08c379a0000000000000000000000000000000000000000000000000000000008152600401611110906126f6565b60405180910390fd5b600160008373ffffffffffffffffffffffffffffffffffffffff1673ffffffffffffffffffffffffffffffffffffffff16815260200190815260200160002060010160149054906101000a900460ff169050919050565b600073ffffffffffffffffffffffffffffffffffffffff16600160003373ffffffffffffffffffffffffffffffffffffffff1673ffffffffffffffffffffffffffffffffffffffff16815260200190815260200160002060010160009054906101000a900473ffffffffffffffffffffffffffffffffffffffff1673ffffffffffffffffffffffffffffffffffffffff161415611242576040517f08c379a000000000000000000000000000000000000000000000000000000000815260040161123990612736565b60405180910390fd5b60011515600160003373ffffffffffffffffffffffffffffffffffffffff1673ffffffffffffffffffffffffffffffffffffffff16815260200190815260200160002060010160159054906101000a900460ff161515146112d8576040517f08c379a00000000000000000000000000000000000000000000000000000000081526004016112cf906126b6565b60405180910390fd5b60011515600160003373ffffffffffffffffffffffffffffffffffffffff1673ffffffffffffffffffffffffffffffffffffffff16815260200190815260200160002060010160149054906101000a900460ff1615151461136e576040517f08c379a000000000000000000000000000000000000000000000000000000000815260040161136590612676565b60405180910390fd5b600073ffffffffffffffffffffffffffffffffffffffff16600160008373ffffffffffffffffffffffffffffffffffffffff1673ffffffffffffffffffffffffffffffffffffffff16815260200190815260200160002060010160009054906101000a900473ffffffffffffffffffffffffffffffffffffffff1673ffffffffffffffffffffffffffffffffffffffff161415611440576040517f08c379a0000000000000000000000000000000000000000000000000000000008152600401611437906126f6565b60405180910390fd5b3373ffffffffffffffffffffffffffffffffffffffff168173ffffffffffffffffffffffffffffffffffffffff1614156114af576040517f08c379a00000000000000000000000000000000000000000000000000000000081526004016114a690612776565b60405180910390fd5b6000600160008373ffffffffffffffffffffffffffffffffffffffff1673ffffffffffffffffffffffffffffffffffffffff168152602001908152602001600020905060008160010160156101000a81548160ff02191690831515021790555060008082600001548154811061154e577f4e487b7100000000000000000000000000000000000000000000000000000000600052603260045260246000fd5b906000526020600020906002020160010160156101000a81548160ff0219169083151502179055505050565b600080600080600073ffffffffffffffffffffffffffffffffffffffff16600160003373ffffffffffffffffffffffffffffffffffffffff1673ffffffffffffffffffffffffffffffffffffffff16815260200190815260200160002060010160009054906101000a900473ffffffffffffffffffffffffffffffffffffffff1673ffffffffffffffffffffffffffffffffffffffff161415611652576040517f08c379a000000000000000000000000000000000000000000000000000000000815260040161164990612736565b60405180910390fd5b60011515600160003373ffffffffffffffffffffffffffffffffffffffff1673ffffffffffffffffffffffffffffffffffffffff16815260200190815260200160002060010160149054906101000a900460ff161515146116e8576040517f08c379a00000000000000000000000000000000000000000000000000000000081526004016116df90612756565b60405180910390fd5b600073ffffffffffffffffffffffffffffffffffffffff16600160008773ffffffffffffffffffffffffffffffffffffffff1673ffffffffffffffffffffffffffffffffffffffff16815260200190815260200160002060010160009054906101000a900473ffffffffffffffffffffffffffffffffffffffff1673ffffffffffffffffffffffffffffffffffffffff1614156117ba576040517f08c379a00000000000000000000000000000000000000000000000000000000081526004016117b1906126f6565b60405180910390fd5b84600160008773ffffffffffffffffffffffffffffffffffffffff1673ffffffffffffffffffffffffffffffffffffffff16815260200190815260200160002060000154600160008873ffffffffffffffffffffffffffffffffffffffff1673ffffffffffffffffffffffffffffffffffffffff16815260200190815260200160002060010160149054906101000a900460ff16600160008973ffffffffffffffffffffffffffffffffffffffff1673ffffffffffffffffffffffffffffffffffffffff16815260200190815260200160002060010160159054906101000a900460ff1693509350935093509193509193565b600073ffffffffffffffffffffffffffffffffffffffff16600160003373ffffffffffffffffffffffffffffffffffffffff1673ffffffffffffffffffffffffffffffffffffffff16815260200190815260200160002060010160009054906101000a900473ffffffffffffffffffffffffffffffffffffffff1673ffffffffffffffffffffffffffffffffffffffff16141561197f576040517f08c379a000000000000000000000000000000000000000000000000000000000815260040161197690612736565b60405180910390fd5b60011515600160003373ffffffffffffffffffffffffffffffffffffffff1673ffffffffffffffffffffffffffffffffffffffff16815260200190815260200160002060010160159054906101000a900460ff16151514611a15576040517f08c379a0000000000000000000000000000000000000000000000000000000008152600401611a0c906126b6565b60405180910390fd5b60011515600160003373ffffffffffffffffffffffffffffffffffffffff1673ffffffffffffffffffffffffffffffffffffffff16815260200190815260200160002060010160149054906101000a900460ff16151514611aab576040517f08c379a0000000000000000000000000000000000000000000000000000000008152600401611aa290612676565b60405180910390fd5b600073ffffffffffffffffffffffffffffffffffffffff16600160008373ffffffffffffffffffffffffffffffffffffffff1673ffffffffffffffffffffffffffffffffffffffff16815260200190815260200160002060010160009054906101000a900473ffffffffffffffffffffffffffffffffffffffff1673ffffffffffffffffffffffffffffffffffffffff161415611b7d576040517f08c379a0000000000000000000000000000000000000000000000000000000008152600401611b74906126f6565b60405180910390fd5b3373ffffffffffffffffffffffffffffffffffffffff168173ffffffffffffffffffffffffffffffffffffffff161415611bec576040517f08c379a0000000000000000000000000000000000000000000000000000000008152600401611be390612696565b60405180910390fd5b6000600160008373ffffffffffffffffffffffffffffffffffffffff1673ffffffffffffffffffffffffffffffffffffffff168152602001908152602001600020905060018160010160156101000a81548160ff02191690831515021790555060016000826000015481548110611c8c577f4e487b7100000000000000000000000000000000000000000000000000000000600052603260045260246000fd5b906000526020600020906002020160010160156101000a81548160ff0219169083151502179055505050565b6000600254905090565b60008073ffffffffffffffffffffffffffffffffffffffff16600160003373ffffffffffffffffffffffffffffffffffffffff1673ffffffffffffffffffffffffffffffffffffffff16815260200190815260200160002060010160009054906101000a900473ffffffffffffffffffffffffffffffffffffffff1673ffffffffffffffffffffffffffffffffffffffff161415611d95576040517f08c379a0000000000000000000000000000000000000000000000000000000008152600401611d8c906126f6565b60405180910390fd5b600160008373ffffffffffffffffffffffffffffffffffffffff1673ffffffffffffffffffffffffffffffffffffffff16815260200190815260200160002060010160159054906101000a900460ff168015611e3d5750600160008373ffffffffffffffffffffffffffffffffffffffff1673ffffffffffffffffffffffffffffffffffffffff16815260200190815260200160002060010160149054906101000a900460ff165b9050919050565b600073ffffffffffffffffffffffffffffffffffffffff16600160003373ffffffffffffffffffffffffffffffffffffffff1673ffffffffffffffffffffffffffffffffffffffff16815260200190815260200160002060010160009054906101000a900473ffffffffffffffffffffffffffffffffffffffff1673ffffffffffffffffffffffffffffffffffffffff161415611f16576040517f08c379a0000000000000000000000000000000000000000000000000000000008152600401611f0d90612736565b60405180910390fd5b60011515600160003373ffffffffffffffffffffffffffffffffffffffff1673ffffffffffffffffffffffffffffffffffffffff16815260200190815260200160002060010160149054906101000a900460ff16151514611fac576040517f08c379a0000000000000000000000000000000000000000000000000000000008152600401611fa390612756565b60405180910390fd5b600073ffffffffffffffffffffffffffffffffffffffff16600160008373ffffffffffffffffffffffffffffffffffffffff1673ffffffffffffffffffffffffffffffffffffffff16815260200190815260200160002060010160009054906101000a900473ffffffffffffffffffffffffffffffffffffffff1673ffffffffffffffffffffffffffffffffffffffff161461207d576040517f08c379a000000000000000000000000000000000000000000000000000000000815260040161207490612796565b60405180910390fd5b6000600160008373ffffffffffffffffffffffffffffffffffffffff1673ffffffffffffffffffffffffffffffffffffffff1681526020019081526020016000209050818160010160006101000a81548173ffffffffffffffffffffffffffffffffffffffff021916908373ffffffffffffffffffffffffffffffffffffffff16021790555060018160010160146101000a81548160ff02191690831515021790555060008160010160156101000a81548160ff02191690831515021790555060025481600001819055506000819080600181540180825580915050600190039060005260206000209060020201600090919091909150600082015481600001556001820160009054906101000a900473ffffffffffffffffffffffffffffffffffffffff168160010160006101000a81548173ffffffffffffffffffffffffffffffffffffffff021916908373ffffffffffffffffffffffffffffffffffffffff1602179055506001820160149054906101000a900460ff168160010160146101000a81548160ff0219169083151502179055506001820160159054906101000a900460ff168160010160156101000a81548160ff021916908315150217905550505060026000815480929190612254906128d5565b91905055505050565b60008135905061226c81612b33565b92915050565b60006020828403121561228457600080fd5b60006122928482850161225d565b91505092915050565b60006122a783836122e3565b60208301905092915050565b60006122bf838361241b565b60208301905092915050565b60006122d78383612597565b60208301905092915050565b6122ec8161288d565b82525050565b6122fb8161288d565b82525050565b600061230c82612801565b6123168185612849565b9350612321836127d1565b8060005b83811015612352578151612339888261229b565b975061234483612822565b925050600181019050612325565b5085935050505092915050565b600061236a8261280c565b612374818561285a565b935061237f836127e1565b8060005b838110156123b057815161239788826122b3565b97506123a28361282f565b925050600181019050612383565b5085935050505092915050565b60006123c882612817565b6123d2818561286b565b93506123dd836127f1565b8060005b8381101561240e5781516123f588826122cb565b97506124008361283c565b9250506001810190506123e1565b5085935050505092915050565b6124248161289f565b82525050565b6124338161289f565b82525050565b600061244660188361287c565b91506124518261294d565b602082019050919050565b6000612469601f8361287c565b915061247482612976565b602082019050919050565b600061248c601e8361287c565b91506124978261299f565b602082019050919050565b60006124af601e8361287c565b91506124ba826129c8565b602082019050919050565b60006124d2600e8361287c565b91506124dd826129f1565b602082019050919050565b60006124f5601c8361287c565b915061250082612a1a565b602082019050919050565b600061251860148361287c565b915061252382612a43565b602082019050919050565b600061253b60198361287c565b915061254682612a6c565b602082019050919050565b600061255e60218361287c565b915061256982612a95565b604082019050919050565b6000612581602b8361287c565b915061258c82612ae4565b604082019050919050565b6125a0816128cb565b82525050565b6125af816128cb565b82525050565b60006080820190506125ca60008301876122f2565b6125d760208301866125a6565b6125e4604083018561242a565b6125f1606083018461242a565b95945050505050565b600060808201905081810360008301526126148187612301565b9050818103602083015261262881866123bd565b9050818103604083015261263c818561235f565b90508181036060830152612650818461235f565b905095945050505050565b6000602082019050612670600083018461242a565b92915050565b6000602082019050818103600083015261268f81612439565b9050919050565b600060208201905081810360008301526126af8161245c565b9050919050565b600060208201905081810360008301526126cf8161247f565b9050919050565b600060208201905081810360008301526126ef816124a2565b9050919050565b6000602082019050818103600083015261270f816124c5565b9050919050565b6000602082019050818103600083015261272f816124e8565b9050919050565b6000602082019050818103600083015261274f8161250b565b9050919050565b6000602082019050818103600083015261276f8161252e565b9050919050565b6000602082019050818103600083015261278f81612551565b9050919050565b600060208201905081810360008301526127af81612574565b9050919050565b60006020820190506127cb60008301846125a6565b92915050565b6000819050602082019050919050565b6000819050602082019050919050565b6000819050602082019050919050565b600081519050919050565b600081519050919050565b600081519050919050565b6000602082019050919050565b6000602082019050919050565b6000602082019050919050565b600082825260208201905092915050565b600082825260208201905092915050565b600082825260208201905092915050565b600082825260208201905092915050565b6000612898826128ab565b9050919050565b60008115159050919050565b600073ffffffffffffffffffffffffffffffffffffffff82169050919050565b6000819050919050565b60006128e0826128cb565b91507fffffffffffffffffffffffffffffffffffffffffffffffffffffffffffffffff8214156129135761291261291e565b5b600182019050919050565b7f4e487b7100000000000000000000000000000000000000000000000000000000600052601160045260246000fd5b7f53656e64657220686173206265656e2064656163746976650000000000000000600082015250565b7f557365722063616e206e6f74207365742061646d696e207468656d73656c6600600082015250565b7f53656e646572206973206e6f7420616e2061646d696e6973747261746f720000600082015250565b7f557365722063616e206e6f74206465616374697665207468656d73656c660000600082015250565b7f55736572206e6f7420666f756e64000000000000000000000000000000000000600082015250565b7f557365722063616e206e6f7420616374697665207468656d73656c6600000000600082015250565b7f53656e646572206973206e6f7420612075736572000000000000000000000000600082015250565b7f53656e64657220686173206265656e2064656163746976656400000000000000600082015250565b7f557365722063616e206e6f7420756e7365742061646d696e207468656d73656c60008201527f6600000000000000000000000000000000000000000000000000000000000000602082015250565b7f557365722077697468207468697320616464726573732068617320616c72656160008201527f6479206578697473746564000000000000000000000000000000000000000000602082015250565b612b3c8161288d565b8114612b4757600080fd5b5056fea2646970667358221220fd655a900467ddc3776395b5ba93f9188a41885c4d40907d0746f6472bbca52164736f6c63430008040033",
  "immutableReferences": {},
  "source": "//SPDX-License-Identifier: UNLICENSED\r\npragma solidity ^0.8.0;\r\n\r\ncontract UserManager{\r\n\r\n    struct User{\r\n        uint256 Index;\r\n        address Address;\r\n        bool IsActive;\r\n        bool IsAdmin;\r\n    }\r\n    \r\n    User[] users;\r\n    mapping(address => User) address2user;\r\n    uint256 counter;\r\n    \r\n    modifier onlyActiveAdmin(){\r\n        require(address2user[msg.sender].Address != address(0), \"Sender is not a user\");\r\n        require(address2user[msg.sender].IsAdmin == true, \"Sender is not an administrator\");\r\n        require(address2user[msg.sender].IsActive == true, \"Sender has been deactive\");\r\n        _;\r\n    }\r\n    \r\n    modifier onlyActiveUser(){\r\n        require(address2user[msg.sender].Address != address(0), \"Sender is not a user\");\r\n        require(address2user[msg.sender].IsActive == true, \"Sender has been deactived\");\r\n        _;\r\n    }\r\n    \r\n    constructor(){\r\n        counter = 1;\r\n        User storage user = address2user[msg.sender];\r\n        user.Address = msg.sender;\r\n        user.IsActive = true;\r\n        user.IsAdmin = true;\r\n        \r\n        users.push(user);\r\n    }\r\n    \r\n    function createUser(address userAddress) public onlyActiveUser{\r\n        require(address2user[userAddress].Address == address(0), \"User with this address has already exitsted\");\r\n        \r\n        User storage user = address2user[userAddress];\r\n        user.Address = userAddress;\r\n        user.IsActive = true;\r\n        user.IsAdmin = false;\r\n        user.Index = counter;\r\n        \r\n        users.push(user);\r\n        counter++;\r\n    }\r\n    \r\n    function activeUser(address userAddress) public onlyActiveAdmin{\r\n        require(address2user[userAddress].Address != address(0), \"User not found\");\r\n        require(userAddress != msg.sender, \"User can not active themself\");\r\n        \r\n        User storage user = address2user[userAddress];\r\n        user.IsActive = true;\r\n        users[user.Index].IsActive = true;\r\n    }\r\n    \r\n    function deactiveUser(address userAddress) public onlyActiveAdmin{\r\n        require(address2user[userAddress].Address != address(0), \"User not found\");\r\n        require(userAddress != msg.sender, \"User can not deactive themself\");\r\n        \r\n        User storage user = address2user[userAddress];\r\n        user.IsActive = false;\r\n        users[user.Index].IsActive = false;\r\n    }\r\n    \r\n    function setAdmin(address userAddress) public onlyActiveAdmin{\r\n        require(address2user[userAddress].Address != address(0), \"User not found\");\r\n        require(userAddress != msg.sender, \"User can not set admin themself\");\r\n        \r\n        User storage user = address2user[userAddress];\r\n        user.IsAdmin = true;\r\n        users[user.Index].IsAdmin = true;\r\n    }\r\n    \r\n    function unsetAdmin(address userAddress) public onlyActiveAdmin{\r\n        require(address2user[userAddress].Address != address(0), \"User not found\");\r\n        require(userAddress != msg.sender, \"User can not unset admin themself\");\r\n        \r\n        User storage user = address2user[userAddress];\r\n        user.IsAdmin = false;\r\n        users[user.Index].IsAdmin = false;\r\n    }\r\n    \r\n    function getCounter() public view returns(uint256){\r\n        return counter;\r\n    }\r\n    \r\n    function getUsers() public onlyActiveUser view returns(address[] memory, uint256[] memory, bool[] memory, bool[] memory){\r\n        address[] memory addressList = new address[](counter);\r\n        uint256[] memory indexList = new uint256[](counter);\r\n        bool[] memory activeList = new bool[](counter);\r\n        bool[] memory adminList = new bool[](counter);\r\n        for (uint256 i = 0; i < counter; i++){\r\n            addressList[i] = users[i].Address;\r\n            indexList[i] = users[i].Index;\r\n            activeList[i] = users[i].IsActive;\r\n            adminList[i] = users[i].IsAdmin;\r\n        }\r\n        return (addressList,indexList,activeList,adminList);\r\n    }\r\n    \r\n    function getUser(address userAddress) public onlyActiveUser view returns(address, uint256, bool, bool){\r\n        require(address2user[userAddress].Address != address(0), \"User not found\");\r\n        \r\n        return(userAddress, address2user[userAddress].Index, address2user[userAddress].IsActive, address2user[userAddress].IsAdmin);\r\n    }\r\n    \r\n    function isActiveAdmin(address userAddress) public view returns(bool){\r\n        require(address2user[msg.sender].Address != address(0), \"User not found\");\r\n        \r\n        return address2user[userAddress].IsAdmin && address2user[userAddress].IsActive;\r\n    }\r\n    \r\n    function isActiveUser(address userAddress) public view returns(bool){\r\n        require(address2user[msg.sender].Address != address(0), \"User not found\");\r\n        \r\n        return address2user[userAddress].IsActive;\r\n    }\r\n}",
  "sourcePath": "D:\\CorporateCapitalManagement\\SmartContract\\contracts\\UserManager.sol",
  "compiler": {
    "name": "solc",
    "version": "0.8.4+commit.c7e474f2.Emscripten.clang"
  },
  "schemaVersion": "3.3.4",
  "updatedAt": "2021-06-09T14:32:52.803Z",
  "devdoc": {
    "kind": "dev",
    "methods": {},
    "version": 1
  },
  "userdoc": {
    "kind": "user",
    "methods": {},
    "version": 1
  }
}